{
  "address": "0x296a2042cF44Bc480F3F7b66C867Fb95F40500a0",
  "abi": [
    {
      "inputs": [
        {
          "internalType": "string",
          "name": "_name",
          "type": "string"
        },
        {
          "internalType": "string",
          "name": "_symbol",
          "type": "string"
        }
      ],
      "stateMutability": "nonpayable",
      "type": "constructor"
    },
    {
      "anonymous": false,
      "inputs": [
        {
          "indexed": true,
          "internalType": "address",
          "name": "owner",
          "type": "address"
        },
        {
          "indexed": true,
          "internalType": "address",
          "name": "approved",
          "type": "address"
        },
        {
          "indexed": true,
          "internalType": "uint256",
          "name": "tokenId",
          "type": "uint256"
        }
      ],
      "name": "Approval",
      "type": "event"
    },
    {
      "anonymous": false,
      "inputs": [
        {
          "indexed": true,
          "internalType": "address",
          "name": "owner",
          "type": "address"
        },
        {
          "indexed": true,
          "internalType": "address",
          "name": "operator",
          "type": "address"
        },
        {
          "indexed": false,
          "internalType": "bool",
          "name": "approved",
          "type": "bool"
        }
      ],
      "name": "ApprovalForAll",
      "type": "event"
    },
    {
      "anonymous": false,
      "inputs": [
        {
          "indexed": true,
          "internalType": "address",
          "name": "from",
          "type": "address"
        },
        {
          "indexed": true,
          "internalType": "address",
          "name": "to",
          "type": "address"
        },
        {
          "indexed": true,
          "internalType": "uint256",
          "name": "tokenId",
          "type": "uint256"
        }
      ],
      "name": "Transfer",
      "type": "event"
    },
    {
      "inputs": [
        {
          "internalType": "address",
          "name": "to",
          "type": "address"
        },
        {
          "internalType": "uint256",
          "name": "tokenId",
          "type": "uint256"
        }
      ],
      "name": "approve",
      "outputs": [],
      "stateMutability": "nonpayable",
      "type": "function"
    },
    {
      "inputs": [
        {
          "internalType": "address",
          "name": "owner",
          "type": "address"
        }
      ],
      "name": "balanceOf",
      "outputs": [
        {
          "internalType": "uint256",
          "name": "",
          "type": "uint256"
        }
      ],
      "stateMutability": "view",
      "type": "function"
    },
    {
      "inputs": [
        {
          "internalType": "uint256",
          "name": "tokenId",
          "type": "uint256"
        }
      ],
      "name": "getApproved",
      "outputs": [
        {
          "internalType": "address",
          "name": "",
          "type": "address"
        }
      ],
      "stateMutability": "view",
      "type": "function"
    },
    {
      "inputs": [
        {
          "internalType": "address",
          "name": "owner",
          "type": "address"
        },
        {
          "internalType": "address",
          "name": "operator",
          "type": "address"
        }
      ],
      "name": "isApprovedForAll",
      "outputs": [
        {
          "internalType": "bool",
          "name": "",
          "type": "bool"
        }
      ],
      "stateMutability": "view",
      "type": "function"
    },
    {
      "inputs": [
        {
          "internalType": "address",
          "name": "recipient",
          "type": "address"
        },
        {
          "internalType": "uint256",
          "name": "tokenId",
          "type": "uint256"
        },
        {
          "internalType": "string",
          "name": "tokenUri",
          "type": "string"
        }
      ],
      "name": "mint",
      "outputs": [],
      "stateMutability": "nonpayable",
      "type": "function"
    },
    {
      "inputs": [],
      "name": "name",
      "outputs": [
        {
          "internalType": "string",
          "name": "",
          "type": "string"
        }
      ],
      "stateMutability": "view",
      "type": "function"
    },
    {
      "inputs": [
        {
          "internalType": "uint256",
          "name": "tokenId",
          "type": "uint256"
        }
      ],
      "name": "ownerOf",
      "outputs": [
        {
          "internalType": "address",
          "name": "",
          "type": "address"
        }
      ],
      "stateMutability": "view",
      "type": "function"
    },
    {
      "inputs": [
        {
          "internalType": "address",
          "name": "from",
          "type": "address"
        },
        {
          "internalType": "address",
          "name": "to",
          "type": "address"
        },
        {
          "internalType": "uint256",
          "name": "tokenId",
          "type": "uint256"
        }
      ],
      "name": "safeTransferFrom",
      "outputs": [],
      "stateMutability": "nonpayable",
      "type": "function"
    },
    {
      "inputs": [
        {
          "internalType": "address",
          "name": "from",
          "type": "address"
        },
        {
          "internalType": "address",
          "name": "to",
          "type": "address"
        },
        {
          "internalType": "uint256",
          "name": "tokenId",
          "type": "uint256"
        },
        {
          "internalType": "bytes",
          "name": "data",
          "type": "bytes"
        }
      ],
      "name": "safeTransferFrom",
      "outputs": [],
      "stateMutability": "nonpayable",
      "type": "function"
    },
    {
      "inputs": [
        {
          "internalType": "address",
          "name": "operator",
          "type": "address"
        },
        {
          "internalType": "bool",
          "name": "approved",
          "type": "bool"
        }
      ],
      "name": "setApprovalForAll",
      "outputs": [],
      "stateMutability": "nonpayable",
      "type": "function"
    },
    {
      "inputs": [
        {
          "internalType": "bytes4",
          "name": "interfaceId",
          "type": "bytes4"
        }
      ],
      "name": "supportsInterface",
      "outputs": [
        {
          "internalType": "bool",
          "name": "",
          "type": "bool"
        }
      ],
      "stateMutability": "view",
      "type": "function"
    },
    {
      "inputs": [],
      "name": "symbol",
      "outputs": [
        {
          "internalType": "string",
          "name": "",
          "type": "string"
        }
      ],
      "stateMutability": "view",
      "type": "function"
    },
    {
      "inputs": [
        {
          "internalType": "uint256",
          "name": "tokenId",
          "type": "uint256"
        }
      ],
      "name": "tokenURI",
      "outputs": [
        {
          "internalType": "string",
          "name": "",
          "type": "string"
        }
      ],
      "stateMutability": "view",
      "type": "function"
    },
    {
      "inputs": [],
      "name": "totalSupply",
      "outputs": [
        {
          "internalType": "uint256",
          "name": "",
          "type": "uint256"
        }
      ],
      "stateMutability": "view",
      "type": "function"
    },
    {
      "inputs": [
        {
          "internalType": "address",
          "name": "from",
          "type": "address"
        },
        {
          "internalType": "address",
          "name": "to",
          "type": "address"
        },
        {
          "internalType": "uint256",
          "name": "tokenId",
          "type": "uint256"
        }
      ],
      "name": "transferFrom",
      "outputs": [],
      "stateMutability": "nonpayable",
      "type": "function"
    }
  ],
  "transactionHash": "0xd815f02586ae4d8a001631e93e32b40be3da4574eb2b47ec6c834cd24b2ec66c",
  "args": [
    "DuoNFT",
    "DNT"
  ],
  "numDeployments": 1,
  "solcInputHash": "230d67a2f20d56489bcb5d0652ca6e1b",
  "bytecode": "0x60806040523480156200001157600080fd5b506040516200287138038062002871833981810160405281019062000037919062000197565b818181600090805190602001906200005192919062000075565b5080600190805190602001906200006a92919062000075565b50505050506200037a565b82805462000083906200029f565b90600052602060002090601f016020900481019282620000a75760008555620000f3565b82601f10620000c257805160ff1916838001178555620000f3565b82800160010185558215620000f3579182015b82811115620000f2578251825591602001919060010190620000d5565b5b50905062000102919062000106565b5090565b5b808211156200012157600081600090555060010162000107565b5090565b60006200013c620001368462000233565b6200020a565b9050828152602081018484840111156200015557600080fd5b6200016284828562000269565b509392505050565b600082601f8301126200017c57600080fd5b81516200018e84826020860162000125565b91505092915050565b60008060408385031215620001ab57600080fd5b600083015167ffffffffffffffff811115620001c657600080fd5b620001d4858286016200016a565b925050602083015167ffffffffffffffff811115620001f257600080fd5b62000200858286016200016a565b9150509250929050565b60006200021662000229565b9050620002248282620002d5565b919050565b6000604051905090565b600067ffffffffffffffff8211156200025157620002506200033a565b5b6200025c8262000369565b9050602081019050919050565b60005b83811015620002895780820151818401526020810190506200026c565b8381111562000299576000848401525b50505050565b60006002820490506001821680620002b857607f821691505b60208210811415620002cf57620002ce6200030b565b5b50919050565b620002e08262000369565b810181811067ffffffffffffffff821117156200030257620003016200033a565b5b80604052505050565b7f4e487b7100000000000000000000000000000000000000000000000000000000600052602260045260246000fd5b7f4e487b7100000000000000000000000000000000000000000000000000000000600052604160045260246000fd5b6000601f19601f8301169050919050565b6124e7806200038a6000396000f3fe608060405234801561001057600080fd5b50600436106100f55760003560e01c80636352211e11610097578063b88d4fde11610066578063b88d4fde14610284578063c87b56dd146102a0578063d3fc9864146102d0578063e985e9c5146102ec576100f5565b80636352211e146101ea57806370a082311461021a57806395d89b411461024a578063a22cb46514610268576100f5565b8063095ea7b3116100d3578063095ea7b31461017857806318160ddd1461019457806323b872dd146101b257806342842e0e146101ce576100f5565b806301ffc9a7146100fa57806306fdde031461012a578063081812fc14610148575b600080fd5b610114600480360381019061010f9190611962565b61031c565b6040516101219190611c87565b60405180910390f35b6101326103fe565b60405161013f9190611ca2565b60405180910390f35b610162600480360381019061015d91906119b4565b610490565b60405161016f9190611c20565b60405180910390f35b610192600480360381019061018d91906118bf565b6104d6565b005b61019c6105ee565b6040516101a99190611e44565b60405180910390f35b6101cc60048036038101906101c791906117b9565b6105ff565b005b6101e860048036038101906101e391906117b9565b61065f565b005b61020460048036038101906101ff91906119b4565b61067f565b6040516102119190611c20565b60405180910390f35b610234600480360381019061022f9190611754565b610731565b6040516102419190611e44565b60405180910390f35b6102526107e9565b60405161025f9190611ca2565b60405180910390f35b610282600480360381019061027d9190611883565b61087b565b005b61029e60048036038101906102999190611808565b610891565b005b6102ba60048036038101906102b591906119b4565b6108f3565b6040516102c79190611ca2565b60405180910390f35b6102ea60048036038101906102e591906118fb565b6109e2565b005b6103066004803603810190610301919061177d565b610a05565b6040516103139190611c87565b60405180910390f35b60007f80ac58cd000000000000000000000000000000000000000000000000000000007bffffffffffffffffffffffffffffffffffffffffffffffffffffffff1916827bffffffffffffffffffffffffffffffffffffffffffffffffffffffff191614806103e757507f5b5e139f000000000000000000000000000000000000000000000000000000007bffffffffffffffffffffffffffffffffffffffffffffffffffffffff1916827bffffffffffffffffffffffffffffffffffffffffffffffffffffffff1916145b806103f757506103f682610a99565b5b9050919050565b60606000805461040d9061205e565b80601f01602080910402602001604051908101604052809291908181526020018280546104399061205e565b80156104865780601f1061045b57610100808354040283529160200191610486565b820191906000526020600020905b81548152906001019060200180831161046957829003601f168201915b5050505050905090565b600061049b82610b03565b6004600083815260200190815260200160002060009054906101000a900473ffffffffffffffffffffffffffffffffffffffff169050919050565b60006104e18261067f565b90508073ffffffffffffffffffffffffffffffffffffffff168373ffffffffffffffffffffffffffffffffffffffff161415610552576040517f08c379a000000000000000000000000000000000000000000000000000000000815260040161054990611de4565b60405180910390fd5b8073ffffffffffffffffffffffffffffffffffffffff16610571610b4e565b73ffffffffffffffffffffffffffffffffffffffff1614806105a0575061059f8161059a610b4e565b610a05565b5b6105df576040517f08c379a00000000000000000000000000000000000000000000000000000000081526004016105d690611d84565b60405180910390fd5b6105e98383610b56565b505050565b60006105fa6006610c0f565b905090565b61061061060a610b4e565b82610c1d565b61064f576040517f08c379a000000000000000000000000000000000000000000000000000000000815260040161064690611e24565b60405180910390fd5b61065a838383610cb2565b505050565b61067a83838360405180602001604052806000815250610891565b505050565b6000806002600084815260200190815260200160002060009054906101000a900473ffffffffffffffffffffffffffffffffffffffff169050600073ffffffffffffffffffffffffffffffffffffffff168173ffffffffffffffffffffffffffffffffffffffff161415610728576040517f08c379a000000000000000000000000000000000000000000000000000000000815260040161071f90611dc4565b60405180910390fd5b80915050919050565b60008073ffffffffffffffffffffffffffffffffffffffff168273ffffffffffffffffffffffffffffffffffffffff1614156107a2576040517f08c379a000000000000000000000000000000000000000000000000000000000815260040161079990611d64565b60405180910390fd5b600360008373ffffffffffffffffffffffffffffffffffffffff1673ffffffffffffffffffffffffffffffffffffffff168152602001908152602001600020549050919050565b6060600180546107f89061205e565b80601f01602080910402602001604051908101604052809291908181526020018280546108249061205e565b80156108715780601f1061084657610100808354040283529160200191610871565b820191906000526020600020905b81548152906001019060200180831161085457829003601f168201915b5050505050905090565b61088d610886610b4e565b8383610f19565b5050565b6108a261089c610b4e565b83610c1d565b6108e1576040517f08c379a00000000000000000000000000000000000000000000000000000000081526004016108d890611e24565b60405180910390fd5b6108ed84848484611086565b50505050565b6060816108ff816110e2565b61093e576040517f08c379a000000000000000000000000000000000000000000000000000000000815260040161093590611e04565b60405180910390fd5b60076000848152602001908152602001600020805461095c9061205e565b80601f01602080910402602001604051908101604052809291908181526020018280546109889061205e565b80156109d55780601f106109aa576101008083540402835291602001916109d5565b820191906000526020600020905b8154815290600101906020018083116109b857829003601f168201915b5050505050915050919050565b6109ec838361114e565b6109f68183611328565b610a00600661139e565b505050565b6000600560008473ffffffffffffffffffffffffffffffffffffffff1673ffffffffffffffffffffffffffffffffffffffff16815260200190815260200160002060008373ffffffffffffffffffffffffffffffffffffffff1673ffffffffffffffffffffffffffffffffffffffff16815260200190815260200160002060009054906101000a900460ff16905092915050565b60007f01ffc9a7000000000000000000000000000000000000000000000000000000007bffffffffffffffffffffffffffffffffffffffffffffffffffffffff1916827bffffffffffffffffffffffffffffffffffffffffffffffffffffffff1916149050919050565b610b0c816110e2565b610b4b576040517f08c379a0000000000000000000000000000000000000000000000000000000008152600401610b4290611dc4565b60405180910390fd5b50565b600033905090565b816004600083815260200190815260200160002060006101000a81548173ffffffffffffffffffffffffffffffffffffffff021916908373ffffffffffffffffffffffffffffffffffffffff160217905550808273ffffffffffffffffffffffffffffffffffffffff16610bc98361067f565b73ffffffffffffffffffffffffffffffffffffffff167f8c5be1e5ebec7d5bd14f71427d1e84f3dd0314c0f7b2291e5b200ac8c7c3b92560405160405180910390a45050565b600081600001549050919050565b600080610c298361067f565b90508073ffffffffffffffffffffffffffffffffffffffff168473ffffffffffffffffffffffffffffffffffffffff161480610c6b5750610c6a8185610a05565b5b80610ca957508373ffffffffffffffffffffffffffffffffffffffff16610c9184610490565b73ffffffffffffffffffffffffffffffffffffffff16145b91505092915050565b8273ffffffffffffffffffffffffffffffffffffffff16610cd28261067f565b73ffffffffffffffffffffffffffffffffffffffff1614610d28576040517f08c379a0000000000000000000000000000000000000000000000000000000008152600401610d1f90611ce4565b60405180910390fd5b600073ffffffffffffffffffffffffffffffffffffffff168273ffffffffffffffffffffffffffffffffffffffff161415610d98576040517f08c379a0000000000000000000000000000000000000000000000000000000008152600401610d8f90611d24565b60405180910390fd5b610da38383836113b4565b610dae600082610b56565b6001600360008573ffffffffffffffffffffffffffffffffffffffff1673ffffffffffffffffffffffffffffffffffffffff1681526020019081526020016000206000828254610dfe9190611f74565b925050819055506001600360008473ffffffffffffffffffffffffffffffffffffffff1673ffffffffffffffffffffffffffffffffffffffff1681526020019081526020016000206000828254610e559190611f1e565b92505081905550816002600083815260200190815260200160002060006101000a81548173ffffffffffffffffffffffffffffffffffffffff021916908373ffffffffffffffffffffffffffffffffffffffff160217905550808273ffffffffffffffffffffffffffffffffffffffff168473ffffffffffffffffffffffffffffffffffffffff167fddf252ad1be2c89b69c2b068fc378daa952ba7f163c4a11628f55a4df523b3ef60405160405180910390a4610f148383836113b9565b505050565b8173ffffffffffffffffffffffffffffffffffffffff168373ffffffffffffffffffffffffffffffffffffffff161415610f88576040517f08c379a0000000000000000000000000000000000000000000000000000000008152600401610f7f90611d44565b60405180910390fd5b80600560008573ffffffffffffffffffffffffffffffffffffffff1673ffffffffffffffffffffffffffffffffffffffff16815260200190815260200160002060008473ffffffffffffffffffffffffffffffffffffffff1673ffffffffffffffffffffffffffffffffffffffff16815260200190815260200160002060006101000a81548160ff0219169083151502179055508173ffffffffffffffffffffffffffffffffffffffff168373ffffffffffffffffffffffffffffffffffffffff167f17307eab39ab6107e8899845ad3d59bd9653f200f220920489ca2b5937696c31836040516110799190611c87565b60405180910390a3505050565b611091848484610cb2565b61109d848484846113be565b6110dc576040517f08c379a00000000000000000000000000000000000000000000000000000000081526004016110d390611cc4565b60405180910390fd5b50505050565b60008073ffffffffffffffffffffffffffffffffffffffff166002600084815260200190815260200160002060009054906101000a900473ffffffffffffffffffffffffffffffffffffffff1673ffffffffffffffffffffffffffffffffffffffff1614159050919050565b600073ffffffffffffffffffffffffffffffffffffffff168273ffffffffffffffffffffffffffffffffffffffff1614156111be576040517f08c379a00000000000000000000000000000000000000000000000000000000081526004016111b590611da4565b60405180910390fd5b6111c7816110e2565b15611207576040517f08c379a00000000000000000000000000000000000000000000000000000000081526004016111fe90611d04565b60405180910390fd5b611213600083836113b4565b6001600360008473ffffffffffffffffffffffffffffffffffffffff1673ffffffffffffffffffffffffffffffffffffffff16815260200190815260200160002060008282546112639190611f1e565b92505081905550816002600083815260200190815260200160002060006101000a81548173ffffffffffffffffffffffffffffffffffffffff021916908373ffffffffffffffffffffffffffffffffffffffff160217905550808273ffffffffffffffffffffffffffffffffffffffff16600073ffffffffffffffffffffffffffffffffffffffff167fddf252ad1be2c89b69c2b068fc378daa952ba7f163c4a11628f55a4df523b3ef60405160405180910390a4611324600083836113b9565b5050565b80611332816110e2565b611371576040517f08c379a000000000000000000000000000000000000000000000000000000000815260040161136890611e04565b60405180910390fd5b82600760008481526020019081526020016000209080519060200190611398929190611578565b50505050565b6001816000016000828254019250508190555050565b505050565b505050565b60006113df8473ffffffffffffffffffffffffffffffffffffffff16611555565b15611548578373ffffffffffffffffffffffffffffffffffffffff1663150b7a02611408610b4e565b8786866040518563ffffffff1660e01b815260040161142a9493929190611c3b565b602060405180830381600087803b15801561144457600080fd5b505af192505050801561147557506040513d601f19601f82011682018060405250810190611472919061198b565b60015b6114f8573d80600081146114a5576040519150601f19603f3d011682016040523d82523d6000602084013e6114aa565b606091505b506000815114156114f0576040517f08c379a00000000000000000000000000000000000000000000000000000000081526004016114e790611cc4565b60405180910390fd5b805181602001fd5b63150b7a0260e01b7bffffffffffffffffffffffffffffffffffffffffffffffffffffffff1916817bffffffffffffffffffffffffffffffffffffffffffffffffffffffff19161491505061154d565b600190505b949350505050565b6000808273ffffffffffffffffffffffffffffffffffffffff163b119050919050565b8280546115849061205e565b90600052602060002090601f0160209004810192826115a657600085556115ed565b82601f106115bf57805160ff19168380011785556115ed565b828001600101855582156115ed579182015b828111156115ec5782518255916020019190600101906115d1565b5b5090506115fa91906115fe565b5090565b5b808211156116175760008160009055506001016115ff565b5090565b600061162e61162984611e84565b611e5f565b90508281526020810184848401111561164657600080fd5b61165184828561201c565b509392505050565b600061166c61166784611eb5565b611e5f565b90508281526020810184848401111561168457600080fd5b61168f84828561201c565b509392505050565b6000813590506116a681612455565b92915050565b6000813590506116bb8161246c565b92915050565b6000813590506116d081612483565b92915050565b6000815190506116e581612483565b92915050565b600082601f8301126116fc57600080fd5b813561170c84826020860161161b565b91505092915050565b600082601f83011261172657600080fd5b8135611736848260208601611659565b91505092915050565b60008135905061174e8161249a565b92915050565b60006020828403121561176657600080fd5b600061177484828501611697565b91505092915050565b6000806040838503121561179057600080fd5b600061179e85828601611697565b92505060206117af85828601611697565b9150509250929050565b6000806000606084860312156117ce57600080fd5b60006117dc86828701611697565b93505060206117ed86828701611697565b92505060406117fe8682870161173f565b9150509250925092565b6000806000806080858703121561181e57600080fd5b600061182c87828801611697565b945050602061183d87828801611697565b935050604061184e8782880161173f565b925050606085013567ffffffffffffffff81111561186b57600080fd5b611877878288016116eb565b91505092959194509250565b6000806040838503121561189657600080fd5b60006118a485828601611697565b92505060206118b5858286016116ac565b9150509250929050565b600080604083850312156118d257600080fd5b60006118e085828601611697565b92505060206118f18582860161173f565b9150509250929050565b60008060006060848603121561191057600080fd5b600061191e86828701611697565b935050602061192f8682870161173f565b925050604084013567ffffffffffffffff81111561194c57600080fd5b61195886828701611715565b9150509250925092565b60006020828403121561197457600080fd5b6000611982848285016116c1565b91505092915050565b60006020828403121561199d57600080fd5b60006119ab848285016116d6565b91505092915050565b6000602082840312156119c657600080fd5b60006119d48482850161173f565b91505092915050565b6119e681611fa8565b82525050565b6119f581611fba565b82525050565b6000611a0682611ee6565b611a108185611efc565b9350611a2081856020860161202b565b611a298161214e565b840191505092915050565b6000611a3f82611ef1565b611a498185611f0d565b9350611a5981856020860161202b565b611a628161214e565b840191505092915050565b6000611a7a603283611f0d565b9150611a858261215f565b604082019050919050565b6000611a9d602583611f0d565b9150611aa8826121ae565b604082019050919050565b6000611ac0601c83611f0d565b9150611acb826121fd565b602082019050919050565b6000611ae3602483611f0d565b9150611aee82612226565b604082019050919050565b6000611b06601983611f0d565b9150611b1182612275565b602082019050919050565b6000611b29602983611f0d565b9150611b348261229e565b604082019050919050565b6000611b4c603e83611f0d565b9150611b57826122ed565b604082019050919050565b6000611b6f602083611f0d565b9150611b7a8261233c565b602082019050919050565b6000611b92601883611f0d565b9150611b9d82612365565b602082019050919050565b6000611bb5602183611f0d565b9150611bc08261238e565b604082019050919050565b6000611bd8601f83611f0d565b9150611be3826123dd565b602082019050919050565b6000611bfb602e83611f0d565b9150611c0682612406565b604082019050919050565b611c1a81612012565b82525050565b6000602082019050611c3560008301846119dd565b92915050565b6000608082019050611c5060008301876119dd565b611c5d60208301866119dd565b611c6a6040830185611c11565b8181036060830152611c7c81846119fb565b905095945050505050565b6000602082019050611c9c60008301846119ec565b92915050565b60006020820190508181036000830152611cbc8184611a34565b905092915050565b60006020820190508181036000830152611cdd81611a6d565b9050919050565b60006020820190508181036000830152611cfd81611a90565b9050919050565b60006020820190508181036000830152611d1d81611ab3565b9050919050565b60006020820190508181036000830152611d3d81611ad6565b9050919050565b60006020820190508181036000830152611d5d81611af9565b9050919050565b60006020820190508181036000830152611d7d81611b1c565b9050919050565b60006020820190508181036000830152611d9d81611b3f565b9050919050565b60006020820190508181036000830152611dbd81611b62565b9050919050565b60006020820190508181036000830152611ddd81611b85565b9050919050565b60006020820190508181036000830152611dfd81611ba8565b9050919050565b60006020820190508181036000830152611e1d81611bcb565b9050919050565b60006020820190508181036000830152611e3d81611bee565b9050919050565b6000602082019050611e596000830184611c11565b92915050565b6000611e69611e7a565b9050611e758282612090565b919050565b6000604051905090565b600067ffffffffffffffff821115611e9f57611e9e61211f565b5b611ea88261214e565b9050602081019050919050565b600067ffffffffffffffff821115611ed057611ecf61211f565b5b611ed98261214e565b9050602081019050919050565b600081519050919050565b600081519050919050565b600082825260208201905092915050565b600082825260208201905092915050565b6000611f2982612012565b9150611f3483612012565b9250827fffffffffffffffffffffffffffffffffffffffffffffffffffffffffffffffff03821115611f6957611f686120c1565b5b828201905092915050565b6000611f7f82612012565b9150611f8a83612012565b925082821015611f9d57611f9c6120c1565b5b828203905092915050565b6000611fb382611ff2565b9050919050565b60008115159050919050565b60007fffffffff0000000000000000000000000000000000000000000000000000000082169050919050565b600073ffffffffffffffffffffffffffffffffffffffff82169050919050565b6000819050919050565b82818337600083830152505050565b60005b8381101561204957808201518184015260208101905061202e565b83811115612058576000848401525b50505050565b6000600282049050600182168061207657607f821691505b6020821081141561208a576120896120f0565b5b50919050565b6120998261214e565b810181811067ffffffffffffffff821117156120b8576120b761211f565b5b80604052505050565b7f4e487b7100000000000000000000000000000000000000000000000000000000600052601160045260246000fd5b7f4e487b7100000000000000000000000000000000000000000000000000000000600052602260045260246000fd5b7f4e487b7100000000000000000000000000000000000000000000000000000000600052604160045260246000fd5b6000601f19601f8301169050919050565b7f4552433732313a207472616e7366657220746f206e6f6e20455243373231526560008201527f63656976657220696d706c656d656e7465720000000000000000000000000000602082015250565b7f4552433732313a207472616e736665722066726f6d20696e636f72726563742060008201527f6f776e6572000000000000000000000000000000000000000000000000000000602082015250565b7f4552433732313a20746f6b656e20616c7265616479206d696e74656400000000600082015250565b7f4552433732313a207472616e7366657220746f20746865207a65726f2061646460008201527f7265737300000000000000000000000000000000000000000000000000000000602082015250565b7f4552433732313a20617070726f766520746f2063616c6c657200000000000000600082015250565b7f4552433732313a2061646472657373207a65726f206973206e6f74206120766160008201527f6c6964206f776e65720000000000000000000000000000000000000000000000602082015250565b7f4552433732313a20617070726f76652063616c6c6572206973206e6f7420746f60008201527f6b656e206f776e6572206e6f7220617070726f76656420666f7220616c6c0000602082015250565b7f4552433732313a206d696e7420746f20746865207a65726f2061646472657373600082015250565b7f4552433732313a20696e76616c696420746f6b656e2049440000000000000000600082015250565b7f4552433732313a20617070726f76616c20746f2063757272656e74206f776e6560008201527f7200000000000000000000000000000000000000000000000000000000000000602082015250565b7f455243373231206572726f723a20546f6b656e4944206e6f7420666f756e6400600082015250565b7f4552433732313a2063616c6c6572206973206e6f7420746f6b656e206f776e6560008201527f72206e6f7220617070726f766564000000000000000000000000000000000000602082015250565b61245e81611fa8565b811461246957600080fd5b50565b61247581611fba565b811461248057600080fd5b50565b61248c81611fc6565b811461249757600080fd5b50565b6124a381612012565b81146124ae57600080fd5b5056fea2646970667358221220b082771345d7e56d3a7b90fceacc51a3487610824af2f2b0cb995dd4f45c26be64736f6c63430008020033",
  "devdoc": {
    "kind": "dev",
    "methods": {
      "approve(address,uint256)": {
        "details": "See {IERC721-approve}."
      },
      "balanceOf(address)": {
        "details": "See {IERC721-balanceOf}."
      },
      "getApproved(uint256)": {
        "details": "See {IERC721-getApproved}."
      },
      "isApprovedForAll(address,address)": {
        "details": "See {IERC721-isApprovedForAll}."
      },
      "name()": {
        "details": "See {IERC721Metadata-name}."
      },
      "ownerOf(uint256)": {
        "details": "See {IERC721-ownerOf}."
      },
      "safeTransferFrom(address,address,uint256)": {
        "details": "See {IERC721-safeTransferFrom}."
      },
      "safeTransferFrom(address,address,uint256,bytes)": {
        "details": "See {IERC721-safeTransferFrom}."
      },
      "setApprovalForAll(address,bool)": {
        "details": "See {IERC721-setApprovalForAll}."
      },
      "supportsInterface(bytes4)": {
        "details": "See {IERC165-supportsInterface}."
      },
      "symbol()": {
        "details": "See {IERC721Metadata-symbol}."
      },
      "tokenURI(uint256)": {
        "details": "See {IERC721Metadata-tokenURI}."
      },
      "transferFrom(address,address,uint256)": {
        "details": "See {IERC721-transferFrom}."
      }
    },
    "version": 1
  },
  "userdoc": {
    "kind": "user",
    "methods": {},
    "version": 1
  },
  "storageLayout": {
    "storage": [
      {
        "astId": 25,
        "contract": "contracts/NFT.sol:DuoNFT",
        "label": "_name",
        "offset": 0,
        "slot": "0",
        "type": "t_string_storage"
      },
      {
        "astId": 27,
        "contract": "contracts/NFT.sol:DuoNFT",
        "label": "_symbol",
        "offset": 0,
        "slot": "1",
        "type": "t_string_storage"
      },
      {
        "astId": 31,
        "contract": "contracts/NFT.sol:DuoNFT",
        "label": "_owners",
        "offset": 0,
        "slot": "2",
        "type": "t_mapping(t_uint256,t_address)"
      },
      {
        "astId": 35,
        "contract": "contracts/NFT.sol:DuoNFT",
        "label": "_balances",
        "offset": 0,
        "slot": "3",
        "type": "t_mapping(t_address,t_uint256)"
      },
      {
        "astId": 39,
        "contract": "contracts/NFT.sol:DuoNFT",
        "label": "_tokenApprovals",
        "offset": 0,
        "slot": "4",
        "type": "t_mapping(t_uint256,t_address)"
      },
      {
        "astId": 45,
        "contract": "contracts/NFT.sol:DuoNFT",
        "label": "_operatorApprovals",
        "offset": 0,
        "slot": "5",
        "type": "t_mapping(t_address,t_mapping(t_address,t_bool))"
      },
      {
        "astId": 1705,
        "contract": "contracts/NFT.sol:DuoNFT",
        "label": "_tokenIds",
        "offset": 0,
        "slot": "6",
        "type": "t_struct(Counter)1350_storage"
      },
      {
        "astId": 1709,
        "contract": "contracts/NFT.sol:DuoNFT",
        "label": "_tokenUri",
        "offset": 0,
        "slot": "7",
        "type": "t_mapping(t_uint256,t_string_storage)"
      }
    ],
    "types": {
      "t_address": {
        "encoding": "inplace",
        "label": "address",
        "numberOfBytes": "20"
      },
      "t_bool": {
        "encoding": "inplace",
        "label": "bool",
        "numberOfBytes": "1"
      },
      "t_mapping(t_address,t_bool)": {
        "encoding": "mapping",
        "key": "t_address",
        "label": "mapping(address => bool)",
        "numberOfBytes": "32",
        "value": "t_bool"
      },
      "t_mapping(t_address,t_mapping(t_address,t_bool))": {
        "encoding": "mapping",
        "key": "t_address",
        "label": "mapping(address => mapping(address => bool))",
        "numberOfBytes": "32",
        "value": "t_mapping(t_address,t_bool)"
      },
      "t_mapping(t_address,t_uint256)": {
        "encoding": "mapping",
        "key": "t_address",
        "label": "mapping(address => uint256)",
        "numberOfBytes": "32",
        "value": "t_uint256"
      },
      "t_mapping(t_uint256,t_address)": {
        "encoding": "mapping",
        "key": "t_uint256",
        "label": "mapping(uint256 => address)",
        "numberOfBytes": "32",
        "value": "t_address"
      },
      "t_mapping(t_uint256,t_string_storage)": {
        "encoding": "mapping",
        "key": "t_uint256",
        "label": "mapping(uint256 => string)",
        "numberOfBytes": "32",
        "value": "t_string_storage"
      },
      "t_string_storage": {
        "encoding": "bytes",
        "label": "string",
        "numberOfBytes": "32"
      },
      "t_struct(Counter)1350_storage": {
        "encoding": "inplace",
        "label": "struct Counters.Counter",
        "members": [
          {
            "astId": 1349,
            "contract": "contracts/NFT.sol:DuoNFT",
            "label": "_value",
            "offset": 0,
            "slot": "0",
            "type": "t_uint256"
          }
        ],
        "numberOfBytes": "32"
      },
      "t_uint256": {
        "encoding": "inplace",
        "label": "uint256",
        "numberOfBytes": "32"
      }
    }
  }
}